{
  "contractName": "JoviStore",
  "abi": [
    {
      "inputs": [
        {
          "internalType": "address",
          "name": "_seller",
          "type": "address"
        },
        {
          "internalType": "address",
          "name": "_buyer",
          "type": "address"
        },
        {
          "internalType": "uint256",
          "name": "_price",
          "type": "uint256"
        }
      ],
      "stateMutability": "nonpayable",
      "type": "constructor"
    },
    {
      "inputs": [],
      "name": "buyer",
      "outputs": [
        {
          "internalType": "address",
          "name": "",
          "type": "address"
        }
      ],
      "stateMutability": "view",
      "type": "function"
    },
    {
      "inputs": [],
      "name": "courier",
      "outputs": [
        {
          "internalType": "address",
          "name": "",
          "type": "address"
        }
      ],
      "stateMutability": "view",
      "type": "function"
    },
    {
      "inputs": [],
      "name": "delivered",
      "outputs": [
        {
          "internalType": "bool",
          "name": "",
          "type": "bool"
        }
      ],
      "stateMutability": "view",
      "type": "function"
    },
    {
      "inputs": [],
      "name": "paid",
      "outputs": [
        {
          "internalType": "bool",
          "name": "",
          "type": "bool"
        }
      ],
      "stateMutability": "view",
      "type": "function"
    },
    {
      "inputs": [],
      "name": "price",
      "outputs": [
        {
          "internalType": "uint256",
          "name": "",
          "type": "uint256"
        }
      ],
      "stateMutability": "view",
      "type": "function"
    },
    {
      "inputs": [],
      "name": "seller",
      "outputs": [
        {
          "internalType": "address",
          "name": "",
          "type": "address"
        }
      ],
      "stateMutability": "view",
      "type": "function"
    },
    {
      "inputs": [],
      "name": "pay",
      "outputs": [],
      "stateMutability": "payable",
      "type": "function"
    },
    {
      "inputs": [
        {
          "internalType": "address",
          "name": "_courier",
          "type": "address"
        }
      ],
      "name": "assignCourier",
      "outputs": [],
      "stateMutability": "nonpayable",
      "type": "function"
    },
    {
      "inputs": [],
      "name": "confirmDelivery",
      "outputs": [],
      "stateMutability": "nonpayable",
      "type": "function"
    },
    {
      "inputs": [],
      "name": "releasePayment",
      "outputs": [],
      "stateMutability": "nonpayable",
      "type": "function"
    }
  ],
  "bytecode": "0x60806040525f60045f6101000a81548160ff0219169083151502179055505f600460016101000a81548160ff02191690831515021790555034801562000043575f80fd5b5060405162001159380380620011598339818101604052810190620000699190620002bc565b5f73ffffffffffffffffffffffffffffffffffffffff168373ffffffffffffffffffffffffffffffffffffffff1603620000da576040517f08c379a0000000000000000000000000000000000000000000000000000000008152600401620000d19062000373565b60405180910390fd5b5f73ffffffffffffffffffffffffffffffffffffffff168273ffffffffffffffffffffffffffffffffffffffff16036200014b576040517f08c379a00000000000000000000000000000000000000000000000000000000081526004016200014290620003e1565b60405180910390fd5b5f811162000190576040517f08c379a000000000000000000000000000000000000000000000000000000000815260040162000187906200044f565b60405180910390fd5b825f806101000a81548173ffffffffffffffffffffffffffffffffffffffff021916908373ffffffffffffffffffffffffffffffffffffffff1602179055508160015f6101000a81548173ffffffffffffffffffffffffffffffffffffffff021916908373ffffffffffffffffffffffffffffffffffffffff160217905550806003819055505050506200046f565b5f80fd5b5f73ffffffffffffffffffffffffffffffffffffffff82169050919050565b5f6200024e8262000223565b9050919050565b620002608162000242565b81146200026b575f80fd5b50565b5f815190506200027e8162000255565b92915050565b5f819050919050565b620002988162000284565b8114620002a3575f80fd5b50565b5f81519050620002b6816200028d565b92915050565b5f805f60608486031215620002d657620002d56200021f565b5b5f620002e5868287016200026e565b9350506020620002f8868287016200026e565b92505060406200030b86828701620002a6565b9150509250925092565b5f82825260208201905092915050565b7f53656c6c657220616464726573732063616e6e6f74206265207a65726f0000005f82015250565b5f6200035b601d8362000315565b9150620003688262000325565b602082019050919050565b5f6020820190508181035f8301526200038c816200034d565b9050919050565b7f427579657220616464726573732063616e6e6f74206265207a65726f000000005f82015250565b5f620003c9601c8362000315565b9150620003d68262000393565b602082019050919050565b5f6020820190508181035f830152620003fa81620003bb565b9050919050565b7f5072696365206d7573742062652067726561746572207468616e207a65726f005f82015250565b5f62000437601f8362000315565b9150620004448262000401565b602082019050919050565b5f6020820190508181035f830152620004688162000429565b9050919050565b610cdc806200047d5f395ff3fe608060405260043610610090575f3560e01c80637150d8ae116100585780637150d8ae1461013257806396a4f68b1461015c578063a035b1fe14610184578063bbdfbfba146101ae578063d116c8c4146101d857610090565b806308551a53146100945780631b9265b8146100be578063295b4e17146100c857806350a7f7d3146100f25780635e10177b1461011c575b5f80fd5b34801561009f575f80fd5b506100a86101ee565b6040516100b591906107cc565b60405180910390f35b6100c6610211565b005b3480156100d3575f80fd5b506100dc61034f565b6040516100e991906107ff565b60405180910390f35b3480156100fd575f80fd5b50610106610361565b60405161011391906107cc565b60405180910390f35b348015610127575f80fd5b50610130610386565b005b34801561013d575f80fd5b50610146610480565b60405161015391906107cc565b60405180910390f35b348015610167575f80fd5b50610182600480360381019061017d9190610846565b6104a5565b005b34801561018f575f80fd5b506101986105e3565b6040516101a59190610889565b60405180910390f35b3480156101b9575f80fd5b506101c26105e9565b6040516101cf91906107ff565b60405180910390f35b3480156101e3575f80fd5b506101ec6105fc565b005b5f8054906101000a900473ffffffffffffffffffffffffffffffffffffffff1681565b60015f9054906101000a900473ffffffffffffffffffffffffffffffffffffffff1673ffffffffffffffffffffffffffffffffffffffff163373ffffffffffffffffffffffffffffffffffffffff16146102a0576040517f08c379a0000000000000000000000000000000000000000000000000000000008152600401610297906108fc565b60405180910390fd5b60035434146102e4576040517f08c379a00000000000000000000000000000000000000000000000000000000081526004016102db90610964565b60405180910390fd5b60045f9054906101000a900460ff1615610333576040517f08c379a000000000000000000000000000000000000000000000000000000000815260040161032a906109cc565b60405180910390fd5b600160045f6101000a81548160ff021916908315150217905550565b60045f9054906101000a900460ff1681565b60025f9054906101000a900473ffffffffffffffffffffffffffffffffffffffff1681565b60025f9054906101000a900473ffffffffffffffffffffffffffffffffffffffff1673ffffffffffffffffffffffffffffffffffffffff163373ffffffffffffffffffffffffffffffffffffffff1614610415576040517f08c379a000000000000000000000000000000000000000000000000000000000815260040161040c90610a5a565b60405180910390fd5b60045f9054906101000a900460ff16610463576040517f08c379a000000000000000000000000000000000000000000000000000000000815260040161045a90610ac2565b60405180910390fd5b6001600460016101000a81548160ff021916908315150217905550565b60015f9054906101000a900473ffffffffffffffffffffffffffffffffffffffff1681565b5f8054906101000a900473ffffffffffffffffffffffffffffffffffffffff1673ffffffffffffffffffffffffffffffffffffffff163373ffffffffffffffffffffffffffffffffffffffff1614610532576040517f08c379a000000000000000000000000000000000000000000000000000000000815260040161052990610b2a565b60405180910390fd5b5f73ffffffffffffffffffffffffffffffffffffffff168173ffffffffffffffffffffffffffffffffffffffff16036105a0576040517f08c379a000000000000000000000000000000000000000000000000000000000815260040161059790610b92565b60405180910390fd5b8060025f6101000a81548173ffffffffffffffffffffffffffffffffffffffff021916908373ffffffffffffffffffffffffffffffffffffffff16021790555050565b60035481565b600460019054906101000a900460ff1681565b5f8054906101000a900473ffffffffffffffffffffffffffffffffffffffff1673ffffffffffffffffffffffffffffffffffffffff163373ffffffffffffffffffffffffffffffffffffffff1614610689576040517f08c379a000000000000000000000000000000000000000000000000000000000815260040161068090610c20565b60405180910390fd5b60045f9054906101000a900460ff166106d7576040517f08c379a00000000000000000000000000000000000000000000000000000000081526004016106ce90610ac2565b60405180910390fd5b600460019054906101000a900460ff16610726576040517f08c379a000000000000000000000000000000000000000000000000000000000815260040161071d90610c88565b60405180910390fd5b5f8054906101000a900473ffffffffffffffffffffffffffffffffffffffff1673ffffffffffffffffffffffffffffffffffffffff166108fc60035490811502906040515f60405180830381858888f1935050505015801561078a573d5f803e3d5ffd5b50565b5f73ffffffffffffffffffffffffffffffffffffffff82169050919050565b5f6107b68261078d565b9050919050565b6107c6816107ac565b82525050565b5f6020820190506107df5f8301846107bd565b92915050565b5f8115159050919050565b6107f9816107e5565b82525050565b5f6020820190506108125f8301846107f0565b92915050565b5f80fd5b610825816107ac565b811461082f575f80fd5b50565b5f813590506108408161081c565b92915050565b5f6020828403121561085b5761085a610818565b5b5f61086884828501610832565b91505092915050565b5f819050919050565b61088381610871565b82525050565b5f60208201905061089c5f83018461087a565b92915050565b5f82825260208201905092915050565b7f4f6e6c79207468652062757965722063616e20706179000000000000000000005f82015250565b5f6108e66016836108a2565b91506108f1826108b2565b602082019050919050565b5f6020820190508181035f830152610913816108da565b9050919050565b7f496e636f7272656374207061796d656e7420616d6f756e7400000000000000005f82015250565b5f61094e6018836108a2565b91506109598261091a565b602082019050919050565b5f6020820190508181035f83015261097b81610942565b9050919050565b7f5061796d656e7420616c7265616479206d6164650000000000000000000000005f82015250565b5f6109b66014836108a2565b91506109c182610982565b602082019050919050565b5f6020820190508181035f8301526109e3816109aa565b9050919050565b7f4f6e6c792074686520636f75726965722063616e20636f6e6669726d2064656c5f8201527f6976657279000000000000000000000000000000000000000000000000000000602082015250565b5f610a446025836108a2565b9150610a4f826109ea565b604082019050919050565b5f6020820190508181035f830152610a7181610a38565b9050919050565b7f5061796d656e7420686173206e6f74206265656e206d616465000000000000005f82015250565b5f610aac6019836108a2565b9150610ab782610a78565b602082019050919050565b5f6020820190508181035f830152610ad981610aa0565b9050919050565b7f4f6e6c792073656c6c65722063616e2061737369676e206120636f75726965725f82015250565b5f610b146020836108a2565b9150610b1f82610ae0565b602082019050919050565b5f6020820190508181035f830152610b4181610b08565b9050919050565b7f436f757269657220616464726573732063616e6e6f74206265207a65726f00005f82015250565b5f610b7c601e836108a2565b9150610b8782610b48565b602082019050919050565b5f6020820190508181035f830152610ba981610b70565b9050919050565b7f4f6e6c79207468652073656c6c65722063616e2072656c65617365207061796d5f8201527f656e740000000000000000000000000000000000000000000000000000000000602082015250565b5f610c0a6023836108a2565b9150610c1582610bb0565b604082019050919050565b5f6020820190508181035f830152610c3781610bfe565b9050919050565b7f476f6f64732068617665206e6f74206265656e2064656c6976657265640000005f82015250565b5f610c72601d836108a2565b9150610c7d82610c3e565b602082019050919050565b5f6020820190508181035f830152610c9f81610c66565b905091905056fea2646970667358221220d0964d87547bbd54d1ba8ed368be2386539a0a55cc8d1ae4adf149cc0ecf8f8364736f6c63430008150033",
  "immutableReferences": {},
  "source": "// SPDX-License-Identifier: MIT\r\npragma solidity ^0.8.0;\r\n\r\ncontract JoviStore {\r\n    address public seller;\r\n    address public buyer;\r\n    address public courier;\r\n    uint public price;\r\n    bool public paid = false;\r\n    bool public delivered = false;\r\n\r\n    constructor(address _seller, address _buyer, uint _price) {\r\n        require(_seller != address(0), \"Seller address cannot be zero\");\r\n        require(_buyer != address(0), \"Buyer address cannot be zero\");\r\n        require(_price > 0, \"Price must be greater than zero\");\r\n\r\n        seller = _seller;\r\n        buyer = _buyer;\r\n        price = _price;\r\n    }\r\n\r\n    function pay() public payable {\r\n        require(msg.sender == buyer, \"Only the buyer can pay\");\r\n        require(msg.value == price, \"Incorrect payment amount\");\r\n        require(!paid, \"Payment already made\");\r\n\r\n        paid = true;\r\n    }\r\n\r\n    function assignCourier(address _courier) public {\r\n        require(msg.sender == seller, \"Only seller can assign a courier\");\r\n        require(_courier != address(0), \"Courier address cannot be zero\");\r\n\r\n        courier = _courier;\r\n    }\r\n\r\n    function confirmDelivery() public {\r\n        require(msg.sender == courier, \"Only the courier can confirm delivery\");\r\n        require(paid, \"Payment has not been made\");\r\n\r\n        delivered = true;\r\n    }\r\n\r\n    function releasePayment() public {\r\n        require(msg.sender == seller, \"Only the seller can release payment\");\r\n        require(paid, \"Payment has not been made\");\r\n        require(delivered, \"Goods have not been delivered\");\r\n\r\n        payable(seller).transfer(price);\r\n    }\r\n}\r\n",
  "sourcePath": "C:\\Users\\JV\\smart_contract\\contracts\\JoviStore.sol",
  "compiler": {
    "name": "solc",
    "version": "0.8.21+commit.d9974bed.Emscripten.clang"
  },
  "schemaVersion": "3.4.16",
  "updatedAt": "2024-12-06T11:57:04.861Z",
  "devdoc": {
    "kind": "dev",
    "methods": {},
    "version": 1
  },
  "userdoc": {
    "kind": "user",
    "methods": {},
    "version": 1
  }
}